:100000000A128A11FC2F00308A000408840A820731
:100010000034573445344C3443344F344D34453434
:020020000034AA
:100AD400831603138801080000300A128A119F2527
:100AE4000A128A1101300A128A119F250800F03077
:100AF40083160313860083120313860183160317D8
:100B0400880189010800F000701C8C2D83120313E6
:100B140008168F2D831203130812F01C932D8816C8
:100B2400942D8812701D982D0817992D0813F01D07
:100B34009D2D8817080088130800F30083120313FF
:100B4400081173080A128A1185250A128A11831260
:100B5400031388150B30F2006230F100F10BB02D55
:100B6400F20BB02D00008312031388110800F70064
:100B7400F501F6017508770784000A128A1103202B
:100B84000A128A11003A03190800750877078400CD
:100B94000A128A1103200A128A110A128A11DB2509
:100BA4000A128A110130F5070318F60A0030F60715
:100BB400BC2DF40074080F39F1007108F2007408B8
:100BC400F039F1007108F300831203130815730858
:100BD400F10004300310F10CFF3E031DEC2D7108ED
:100BE4000A128A1185250A128A11831203138815A1
:100BF4001A30F100F10BFC2D00008312031388114D
:100C040072080A128A1185250A128A1183120313A3
:100C140088151A30F100F10B0D2E00008312031316
:100C240088110800F7007703031D392E74087F3EEE
:100C3400F5007508FA007A08F50004300310F50C85
:100C4400FF3E031D202E7508F6007608F8007A088A
:100C54000F39F5007508F90078080A128A119F25E2
:100C64000A128A1179080A128A119F250800023093
:100C74007706031D08007408BF3EF5007508FA00E6
:100C84007A08F50004300310F50CFF3E031D452ED1
:100C94007508F6007608F8007A080F39F50075082B
:100CA400F90078080A128A119F250A128A11790814
:100CB4000A128A119F2508000A128A1179250A123C
:100CC4008A110A128A116A250A128A110A128A11D1
:100CD400B6260A128A110A128A116E250A128A117C
:100CE400F401F40A01300A128A1114260A128A1134
:100CF40001300A128A11B9250A128A111530FD0031
:100D04004B30FC00D130FB00FB0B862EFC0B862EF7
:100D1400FD0B862E00000A128A116E250A128A1112
:100D24000A128A1111270A128A11FB007B08831206
:100D34000313A000203020060319922E0A128A11F0
:100D44006E250A128A11F401F40A01300A128A117A
:100D540014260A128A118312031320080A128A1114
:100D6400DB250A128A11922E00300A128A11852577
:100D74000A128A113430F500F130F400F40BC02E5D
:100D8400F50BC02EC52E03300A128A119F250A12B4
:100D94008A110D30F500FB30F400F40BCF2EF50B67
:100DA400CF2ED42E03300A128A119F250A128A11DB
:100DB4001D30F5009130F400F40BDE2EF50BDE2E21
:100DC40003300A128A119F250A128A1102300A126C
:100DD4008A119F250A128A1102300A128A119F254C
:100DE4000A128A1108300A128A119F250A128A11DE
:100DF40000300A128A119F250A128A110C300A1235
:100E04008A119F250A128A1100300A128A119F251D
:100E14000A128A1106300A128A119F250800F40169
:100E2400F501F401F5010030750204300319740270
:100E340003187E2F74087504031D222F0130352FEB
:100E440074037504031D282F0230352F02307406F5
:100E54007504031D2F2F0430352F033074067504D9
:100E6400031D382F083083120313860083120313E3
:100E7400061E472F0030F000F1007508F3007408D7
:100E8400F2000A128A1180270800861E552F0130AD
:100E9400F0000030F1007508F3007408F2000A1243
:100EA4008A1180270800061F632F0230F0000030EB
:100EB400F1007508F3007408F2000A128A11802701
:100EC4000800861F712F0330F0000030F100750810
:100ED400F3007408F2000A128A1180270800013016
:100EE400F4070318F50A0030F507003075020430E2
:100EF40003197402031C1C2F2030080072087304A9
:100F0400031D9E2F033070067104031D8B2F413087
:100F14000800023070067104031D922F333008005C
:100F240070037104031D982F323008007008710497
:100F3400031DFA2F3130080072037304031DBC2F04
:100F4400033070067104031DA92F423008000230DB
:100F540070067104031DB02F36300800700371044D
:100F6400031DB62F3530080070087104031DFA2FD5
:100F740034300800023072067304031DDB2F033083
:100F840070067104031DC82F433008000230700638
:100F94007104031DCF2F3930080070037104031D41
:100FA400D52F3830080070087104031DFA2F37302C
:100FB4000800033072067304031DFA2F0330700611
:100FC4007104031DE72F44300800023070067104D9
:100FD400031DEE2F2E30080070037104031DF42F3F
:100FE4003030080070087104031DFA2F2330080004
:0C0FF4002030080083010A128A115E2ED2
:04400E00F2E0FFFFDE
:00000001FF
