:060000000A128A11122809
:10000800FE00030EF0000408F1000A08F200831253
:1000180003137F08F3000A128A114E2B0A128A1161
:100028001528F801F90183010A128A111B28831681
:1000380003178801890183160313880183120313A8
:100048008801FF308316031385008601831203138A
:1000580086018316031305158316031708158316DF
:1000680003139F171F129F12831203131F083F3990
:1000780040389F001F08C33908389F001F140C1709
:10008800831603130C170B178B170A128A115F219B
:100098000A128A1183120313A001A00A01300A125E
:1000A8008A111B220A128A1101300A128A11282386
:1000B8000A128A1183120313A001A00A02300A123D
:1000C8008A111B220A128A111A300A128A1128234D
:1000D8000A128A111F3083120313A9007130A80075
:1000E8003B30A700A70B7628A80B7628A90B762803
:1000F80000000A128A11A7230A128A118312031315
:100108009F140A128A11A7230A128A118312031351
:10011800A001A00A01300A128A111B220A128A11B0
:100128000E300A128A1128230A128A110F308312FC
:100138000313A7002708A00002300A128A111B2205
:100148000A128A110A30F4000030F5007908F70025
:100158007808F6000A128A116D220A128A117408A8
:10016800303E0A128A11BA220A128A110A30F400A1
:100178000030F5007908F7007808F6000A128A11AD
:10018800C0210A128A117508F9007408F8000E30A7
:1001980083120313A7002708A00002300A128A114D
:1001A8001B220A128A110A30F4000030F50079087F
:1001B800F7007808F6000A128A116D220A128A11CD
:1001C8007408303E0A128A11BA220A128A110A30B9
:1001D800F4000030F5007908F7007808F6000A12F4
:1001E8008A11C0210A128A117508F9007408F800EA
:1001F8000D3083120313A7002708A00002300A124B
:100208008A111B220A128A110A30F4000030F50004
:100218007908F7007808F6000A128A116D220A1286
:100228008A117408303E0A128A11BA220A128A11F7
:100238000A30F4000030F5007908F7007808F60075
:100248000A128A11C0210A128A117508F900740865
:10025800F8000C3083120313A7002708A00002300F
:100268000A128A111B220A128A110A30F40000307D
:10027800F5007908F7007808F6000A128A116D224D
:100288000A128A117408303E0A128A11BA220A1216
:100298008A118228053083120313A9000F30A800A1
:1002A800F430A700A70B5629A80B5629A90B5629E5
:1002B8000A128A11122800300A128A118D230A1292
:1002C8008A11343083120313A100F130A000A00B6F
:1002D8006B29A10B6B29702903300A128A11732329
:1002E8000A128A110D3083120313A100FB30A000FB
:1002F800A00B7C29A10B7C29812903300A128A11C1
:1003080073230A128A111D3083120313A10091303E
:10031800A000A00B8D29A10B8D2903300A128A1188
:1003280073230A128A1102300A128A1173230A12DD
:100338008A1102300A128A1173230A128A110830AC
:100348000A128A1173230A128A1100300A128A11BA
:1003580073230A128A110C300A128A1173230A12A3
:100368008A1100300A128A1173230A128A11063080
:100378000A128A117323080083120313A201F51FBE
:10038800CC29F409F509F40A0319F50AA201A20A0D
:10039800F71FD729F609F709F60A0319F70A0130F2
:1003A800A0002008A206A301A4017408750403197B
:1003B8000E2AA101A10AF51BED2901300310F40D45
:1003C800F50DFF3E031DE2290130A0002008A1071A
:1003D800DF2901300310A30DA40DFF3E031DEE29F4
:1003E80075087702031DFA2974087602031C032A8C
:1003F8007408F6027508031CF703F702231401308A
:100408000310F50CF40CFF3E031D042A0130A10271
:10041800031DED2922080319162AA309A409A30A12
:100428000319A40A2408F5002308F400080083121D
:100438000313A3002303031D442A20087F3EA100C1
:100448002108A6002608A10004300310A10CFF3ED5
:10045800031D292A2108A2002208A40026080F3912
:10046800A1002108A50024080A128A1173230A1280
:100478008A118312031325080A128A1173230800AC
:100488000230831203132306031D08002008BF3E11
:10049800A1002108A6002608A10004300310A10C21
:1004A800FF3E031D522A2108A2002208A4002608A4
:1004B8000F39A1002108A50024080A128A11732304
:1004C8000A128A118312031325080A128A11732348
:1004D800080083120313A201F71F792AF609F70906
:1004E800F60A0319F70AA201A20AF51F802AF409DD
:1004F800F509F40A0319F50A740875040319AD2AF5
:10050800A101A10AF51B942A01300310F40DF50D81
:10051800FF3E031D892A0130A0002008A107862A72
:1005280075087702031D9A2A74087602031CA22A0A
:100538007408F6027508031CF703F702013003106C
:10054800F50CF40CFF3E031DA32A0130A102031D84
:10055800942A22080319B52AF609F709F60A031995
:10056800F70A7708F5007608F400080083120313E9
:10057800A20022080F39F5007508A0002208F039FA
:10058800F5007508A10008152108F50004300310CE
:10059800F50CFF3E031DCB2A75080A128A118D231C
:1005A8000A128A118312031388151A30F500F50B05
:1005B800DB2A000083120313881120080A128A110B
:1005C8008D230A128A118312031388151A30F50035
:0E05D800F50BEC2A00008312031388110800B3
:1006000003308A000408840A8207003444346534C5
:10061000763465346C346F3470346534643420342B
:10062000423479340034443469347334743461347A
:100630006E346334653420343D3420340034473420
:1006400052344F345534503420343134363400343D
:1006500083120313A500A301A40123082507840026
:100660000A128A1100230A128A11003A031908009B
:100670002308250784000A128A1100230A128A110E
:100680000A128A11BA220A128A1101308312031344
:10069000A3070318A40A0030A4072D2B06160C1F6D
:1006A000672B831603130C130B138B138312031383
:1006B0009F18602B1E08F900831603131E08F8000C
:1006C00083120C08831603130C170B178B17730870
:1006D0008312FF0072088A0071088400700E830084
:1006E000FE0E7E0E0900F70083120313081177082F
:1006F0000A128A118D230A128A1183120313881594
:100700000B30F6006230F500F50B842BF60B842BD2
:1007100000008312031388110800F400741C942B4A
:10072000831203130816972B831203130812F41C69
:100730009B2B88169C2B8812741DA02B0817A12BAD
:100740000813F41DA52B8817080088130800003033
:100750000A128A1173230A128A1101300A128A11AD
:0407600073230800F7
:04400E00F2E0FFFFDE
:00000001FF
