:100000000A128A11FC2F00308A000408840A820731
:100010000034413442344334443445344634473464
:10002000483449344A344B344C344D344E344F34D4
:10003000503400346134623463346434653466347B
:100040006734683469346A346B346C346D346E34BC
:100050006F34703400342134403423342434253454
:100060005E3426342A34283429345F342B34003467
:1000700048346934723461346E3420345034653419
:100080007234653472346134003431343234333490
:0E0090003434353436343734383439340034AF
:100B6A0000300A128A11F0250A128A1101300A127B
:100B7A008A11F025080001300A128A11F0250A129A
:100B8A008A1108300A128A11F025080001300A1267
:100B9A008A11F0250A128A110C300A128A11F025DC
:100BAA000800F000701CDD2D831203130816E02DD7
:100BBA00831203130812F01CE42D8816E52D8812FF
:100BCA00701DE92D0817EA2D0813F01DEE2D881760
:100BDA00080088130800F30083120313081173082E
:100BEA000A128A11D6250A128A118312031388154A
:100BFA001A30F200F830F100F10B012EF20B012E3F
:100C0A0000008312031388110800F700F501F601AA
:100C1A007508770784000A128A1103200A128A11BA
:100C2A00003A031908007508770784000A128A1126
:100C3A0003200A128A110A128A112C260A128A1110
:100C4A000130F5070318F60A0030F6070D2EF400F6
:100C5A0074080F39F1007108F2007408F039F100D4
:100C6A007108F3008312031308157308F1000430A6
:100C7A000310F10CFF3E031D3D2E71080A128A1162
:100C8A00D6250A128A118312031388154230F100FD
:100C9A00F10B4D2E000083120313881172080A12F9
:100CAA008A11D6250A128A11831203138815423033
:100CBA00F100F10B5E2E0000831203138811080065
:100CCA00F7007703031D8A2E74087F3EF500750826
:100CDA00FA007A08F50004300310F50CFF3E031DF4
:100CEA00712E7508F6007608F8007A080F39F500B3
:100CFA007508F90078080A128A11F0250A128A1171
:100D0A0079080A128A11F025080002307706031DB5
:100D1A0008007408BF3EF5007508FA007A08F50065
:100D2A0004300310F50CFF3E031D962E7508F600DD
:100D3A007608F8007A080F39F5007508F90078087E
:100D4A000A128A11F0250A128A1179080A128A11DE
:100D5A00F025080000300A128A11D6250A128A11D3
:100D6A008230F500DD30F400F40BB92EF50BB92E04
:100D7A00BE2E03300A128A11F0250A128A11213076
:100D8A00F5007630F400F40BC82EF50BC82E0000DF
:100D9A0003300A128A11F0250A128A114830F50026
:100DAA006C30F400F40BD72EF50BD72E000003306D
:100DBA000A128A11F0250A128A1102300A128A11BD
:100DCA00F0250A128A1102300A128A11F0250A1233
:100DDA008A1108300A128A11F0250A128A11003083
:100DEA000A128A11F0250A128A110C300A128A1183
:100DFA00F0250A128A1100300A128A11F0250A1205
:100E0A008A1106300A128A11F02508008316031384
:100E1A0088010A128A11AF260A128A110A128A1145
:100E2A00B5250A128A11F401F40A01300A128A114C
:100E3A0065260A128A1101300A128A110A260A1232
:100E4A008A11F401F40A02300A128A1165260A127A
:100E5A008A1112300A128A110A260A128A113330AA
:100E6A00FD00BC30FC001030FB00FB0B3A2FFC0BE2
:100E7A003A2FFD0B3A2F0A128A11B5250A128A1146
:100E8A00F401F40A01300A128A1165260A128A113B
:100E9A003D300A128A110A260A128A11F401F40A4A
:100EAA0002300A128A1165260A128A1123300A129E
:100EBA008A110A260A128A113330FD00BC30FC005E
:100ECA001030FB00FB0B672FFC0B672FFD0B672F06
:100EDA000A128A11B5250A128A11F401F40A01309C
:100EEA000A128A1165260A128A1130300A128A11E8
:100EFA000A260A128A1183120313A001A1010030E3
:100F0A0021020F30031920020318AC2F0830FD000C
:100F1A009D30FC000B30FB00FB0B912FFC0B912F3B
:100F2A00FD0B912F982F0A128A11CB250A128A11CA
:100F3A00013083120313A0070318A10A0030A10786
:100F4A00003021020F3003192002031C8B2FA0014D
:100F5A00A101003021020F30031920020318D62FF5
:100F6A000830FD009D30FC000B30FB00FB0BBB2F53
:100F7A00FC0BBB2FFD0BBB2FC22F0A128A11C025F7
:100F8A000A128A11013083120313A0070318A10A57
:100F9A000030A107003021020F3003192002031C80
:100FAA00B52F0A128A11B5250A128A11F401F40A18
:100FBA0002300A128A1165260A128A1148300A1268
:100FCA008A112C260A128A1150300A128A112C26EA
:100FDA000A128A113330FD00BC30FC001030FB00CD
:100FEA00FB0BF52FFC0BF52FFD0BF52F132F8301B0
:060FFA000A128A110B2F00
:02400E003A3F37
:00000001FF
