:060000000A128A11122809
:10000800FE00030E83120313C0000408C1000A088F
:10001800C2007F08C3000A168A11FA2D0A128A1133
:100028001528831603170A128A156B200A128A11DB
:10003800BB000A128A156C200A128A11BC000A1227
:100048008A156D200A128A11BD000A128A156E20BF
:100058000A128A11BE000A128A156F20BF00831285
:100068000313C401C501C601C701C801C901CA01FA
:10007800CB01CC0183010A128A1142281030831661
:100088000313860088018B170B108B1516160A169A
:100098008A1161240A128A110A168A119F270A12E4
:1000A8008A1183160313A401A40A01300A168A11BF
:1000B80093260A128A1147300A168A11DF240A1277
:1000C8008A1183160313A401A40A02300A168A119E
:1000D80093260A128A113A300A168A11DF240A1264
:1000E8008A111F3083160317BA007130B9003B30EC
:1000F800B800B80B7D28B90B7D28BA0B7D28000005
:100108000A168A1143240A128A1110308312031323
:100118009000831203138F018E01061093289428F0
:10012800831203130614063083160317B800B80B9E
:100138009B2800008312031306100230831603174E
:10014800BA000430B900BA30B800B80BA928B90B06
:10015800A928BA0BA9280000023083160317A900A2
:100168000030AA000A128A1530270A128A1183164B
:1001780003172A0883120313CC00831603172908D0
:1001880083120313CB000A168A1143240A128A1118
:1001980083160313A401A40A01300A168A119326B0
:1001A8000A128A1154300A168A11DF240A128A1197
:1001B8000E3083160317B800380883160313A400FB
:1001C80001300A168A1193260A128A110A308316F8
:1001D8000313A0000030A1008312031348088316FC
:1001E8000313A30083120313470883160313A20003
:1001F8000A168A1146260A128A1183160313200842
:10020800303E0A168A11B7250A128A110A30831657
:100218000313A0000030A1008312031348088316BB
:100228000313A30083120313470883160313A200C2
:100238000A168A11E5260A128A1183160313210861
:1002480083120313C80083160313200883120313B1
:10025800C7000D3083160317B80038088316031338
:10026800A40001300A168A1193260A128A110A304C
:1002780083160313A0000030A1008312031348085B
:1002880083160313A300831203134708831603136B
:10029800A2000A168A1146260A128A118316031327
:1002A8002008303E0A168A11B7250A128A110A3028
:1002B80083160313A0000030A1008312031348081B
:1002C80083160313A300831203134708831603132B
:1002D800A2000A168A11E5260A128A118316031348
:1002E800210883120313C8008316031320088312FE
:1002F8000313C7000C3083160317B8003808831699
:100308000313A40001300A168A1193260A128A11CF
:100318000A3083160313A0000030A10083120313D0
:10032800480883160313A300831203134708831690
:100338000313A2000A168A1146260A128A11831686
:1003480003132008303E0A168A11B7250A128A11AB
:100358000F3083160317B800380883160313A40058
:1003680001300A168A1193260A128A1160300A1679
:100378008A11DF240A128A1183160313A401A40A1E
:1003880002300A168A1193260A128A1154300A1664
:100398008A11DF240A128A110F3083160317B80056
:1003A800380883160313A40002300A168A1193260C
:1003B8000A128A110A3083160313A0000030A10024
:1003C800831203134C0883160313A3008312031329
:1003D8004B0883160313A2000A168A1146260A122E
:1003E8008A11831603132008303E0A168A11B7258E
:1003F8000A128A110A3083160313A0000030A100E4
:10040800831203134C0883160313A30083120313E8
:100418004B0883160313A2000A168A11E5260A124E
:100428008A1183160313210883120313CC00831641
:100438000313200883120313CB000E30831603170F
:10044800B800380883160313A40002300A168A116C
:1004580093260A128A110A3083160313A00000306B
:10046800A100831203134C0883160313A3008312FD
:1004780003134B0883160313A2000A168A11462693
:100488000A128A11831603132008303E0A168A11AD
:10049800B7250A128A110A3083160313A000003008
:1004A800A100831203134C0883160313A3008312BD
:1004B80003134B0883160313A2000A168A11E526B4
:1004C8000A128A1183160313210883120313CC001E
:1004D80083160313200883120313CB000D308316F1
:1004E8000317B800380883160313A40002300A164D
:1004F8008A1193260A128A110A3083160313A00060
:100508000030A100831203134C0883160313A300C1
:10051800831203134B0883160313A2000A168A11C9
:1005280046260A128A11831603132008303E0A163B
:100538008A11B7250A128A110A3083160313A000FC
:100548000030A100831203134C0883160313A30081
:10055800831203134B0883160313A2000A168A1189
:10056800E5260A128A11831603132108831203133E
:10057800CC0083160313200883120313CB000C301E
:1005880083160317B800380883160313A400023033
:100598000A168A1193260A128A110A30831603133F
:1005A800A0000030A100831203134C088316031324
:1005B800A300831203134B0883160313A2000A1621
:1005C8008A1146260A128A11831603132008303E20
:1005D8000A168A11B7250A128A11023083160317E0
:1005E800BA000430B900BA30B800B80BF92AB90B10
:1005F800F92ABA0BF92A00008D28831603179C01E3
:10060800120811041004031D392B0030831603133C
:10061800BE000030BF000030C00083160317130867
:1006280083160313C10083160317140883160313D4
:10063800C20083160317150883160313C3000A168E
:100648008A1140270A128A11031C302B2130831289
:100658000313C9000030CA00003083160317900046
:1006680000309100003092000800150814041304AB
:10067800031D452B00309000803091003F309200E0
:100688000800100883160313BE0083160317110809
:1006980083160313BF008316031712088316031368
:1006A800C0000030C1000030C2000030C3000A168C
:1006B8008A1140270A128A110318052C831603177A
:1006C800130883160313BE00831603171408831632
:1006D8000313BF0083160317150883160313C000FE
:1006E8000A128A1580220A128A11831603134108F6
:1006F80083160317A00083160313400883160317F5
:100708009F00831603133F08831603179E00831662
:1007180003133E08831603179D002008831603134E
:10072800AB00831603171F0883160313AA0083164A
:1007380003171E0883160313A900831603171D0841
:1007480083160313A8000A128A1570200A128A1148
:10075800831603171508831603132A06031DC22BD5
:10076800831603171408831603132906031DC22BC7
:100778008316031713088316031328060319D32BAC
:10078800213083120313C9000030CA0000308316D9
:100798000317900000309100003092000800831683
:1007A80003171D08013983160313EC006C08831620
:1007B80003179C00100883160313A0008316031761
:1007C800110883160313A100831603171208831652
:1007D8000313A2000A168A1139240A128A118316F1
:1007E80003132008831603179000831603132108A8
:1007F8008316031791008316031322088316031721
:10080800920083160317100883160313D500831666
:100818000317110883160313D6008316031712084B
:1008280083160313D7000A128A1562260A128A1140
:1008380083160313550883160317960083160313AC
:100848005608831603179700831603135708831651
:1008580003179800130883160313AE0083160317B3
:10086800140883160313AF0083160317150883169D
:100878000313B00083160317160883160313B10079
:1008880083160317170883160313B200831603177A
:10089800180883160313B3000A128A1108270A12CC
:1008A8008A11831603132E088316031799008316DB
:1008B80003132F08831603179A00831603133008AF
:1008C800831603179B00190883160313DF0083168A
:1008D80003171A0883160313E000831603171B086F
:1008E80083160313E1000A128A11B7240A128A1127
:1008F800831603135F0883160317900083160313E8
:100908006008831603179100831603136108831682
:10091800031792001C080319080010088316031314
:10092800A00083160317110883160313A10083166A
:100938000317120883160313A2000A168A11392412
:1009480083160313200883160317900083160313D6
:1009580021088316031791008316031322088316B0
:1009680003179200080083160313610860045F04EC
:10097800031DC52C0030DF008030E0003F30E1006F
:1009880008007230BE003130BF004430C0005F083C
:10099800C1006008C2006108C3000A168A11402716
:1009A8000A128A110318E72C223083120313C90094
:1009B8000030CA00FF3083160313DF007F30E000E9
:1009C8007F30E1000800831603135F08BE0060084B
:1009D800BF006108C0004930C1003A30C200C430CD
:1009E800C3000A168A1140270A128A1103180B2D10
:1009F800223083120313C9000030CA000030831666
:100A08000313DF000030E0000030E1000800831627
:100A180003135F08BE006008BF006108C000003013
:100A2800C1000030C2000030C3000A168A114027F6
:100A38000A128A110318222D0130232D0030831643
:100A48000313E2006208EB006B0803193E2D5F08F0
:100A5800A0006008A1006108A2000A168A113924C2
:100A68000A128A11831603132008DF002108E00008
:100A78002208E100AA30AE00B830AF003F30B00025
:100A88005F08B1006008B2006108B3000A128A1159
:100A980008270A128A11831603132E08DF002F086D
:100AA800E0003008E1005F08D4006008D500610864
:100AB800D6000A128A150E230A128A118316031306
:100AC8005408E3005508E4005608E5006308BE0032
:100AD8006408BF006508C0000A128A1580220A123D
:100AE8008A11831603133F08EA003E08E9006A08E2
:100AF800A9006908A8000A128A11DB270A128A11BC
:100B0800831603132808CB002908CC002A08CD0037
:100B18005F08CE006008CF006108D0000A168A116D
:100B2800BE240A128A11831603134B08DF004C08EF
:100B3800E0004D08E1005F08CB006008CC006108C8
:100B4800CD000130E2006208CE000930CF0000304D
:100B5800D0000A128A1579210A128A118316031302
:100B68004B08D5004C08D6004D08D7006A08D900B4
:100B78006908D8000A128A15A7230A128A1183164F
:100B880003135508DF005608E0005708E1006B081A
:100B980003190800FF30E6007F30E7007F30E800E7
:100BA80061086806031DDE2D60086706031DDE2D3B
:100BB8005F086606031DE72D0030DF000030E00007
:100BC8000030E10008005F08BE006008BF0061084F
:100BD800C0000030C1008030C2003F30C3000A129C
:100BE8008A15AA25831603133E08DF003F08E00094
:100BF8004008E1000800831603133E08C4003F08BC
:100C0800C5004008C6000310450D460DC70047083B
:100C1800CA004108C4004208C5004308C6000310C2
:100C2800450D460DC7004708C9004A080319282E74
:100C380049084A0203182F2E4A03FF3A4907C400FD
:100C480019304402031C2F2E4108BE004208BF0081
:100C58004308C00008004908031908004A08490267
:100C680003183E2E4903FF3A4A07C40019304402CC
:100C7800031808000630C4004408C800C01BC81781
:100C8800C31B4817BF17FF30BE05FF30BF05003034
:100C9800C005C217FF30C105FF30C2050030C305CB
:100CA80049084A0203187E2E01300310C10DC20DF7
:100CB800C30DFF3E031D592E0130C90249084A06DB
:100CC8000319792E0130C802480807390319792E0B
:100CD800582E01300310C00CBF0CBE0CFF3E031D84
:100CE8006E2E0130C4004408CA074A084906031991
:100CF800A72E6D2E4A0849020318A72E01300310AB
:100D0800BE0DBF0DC00DFF3E031D832E0130CA026C
:100D180049084A060319A32E0130C80248080739B2
:100D28000319A32E822E01300310C30CC20CC10C70
:100D3800FF3E031D982E0130C4004408C9074A0825
:100D48004906031D972EC81FB92EFF30BE06FF3077
:100D5800BF06FF30C0060130BE070030031801305F
:100D6800BF07003003180130C007481FCB2EFF30E3
:100D7800C106FF30C206FF30C3060130C10700308C
:100D880003180130C207003003180130C307C80137
:100D98003E08C1073F08031103183F0A031DC20795
:100DA800400803110318400A031DC307C31FEE2E92
:100DB800FF30C106FF30C206FF30C3060130C1074D
:100DC800003003180130C207003003180130C30790
:100DD800C801C80A4108A0004208A1004308A200AF
:100DE8004A08C4004408A3004808C5004508A400F0
:100DF8000A128A150B21831603132008BE00210846
:100E0800BF002208C0000800831603132E08B40090
:100E18002F08B5003008B6000310350D360DB700A1
:100E28003708B8003808031D202F0030AE00003006
:100E3800AF000030B00008003108B4003208B50037
:100E48003308B6000310350D360DB7003708BD005E
:100E58003D08031D362F0030AE000030AF000030D3
:100E6800B00008003D087B3EB4003408B8072E08DF
:100E7800B4002F08B5003008B60010300310B60CC7
:100E8800B50CB40CFF3E031D422F3408B7003708D9
:100E9800BD003108B4003208B5003308B600103080
:100EA8000310B60CB50CB40CFF3E031D542F3408C8
:100EB800B7003708BD068030B4003408BD05AF1749
:100EC800B217FF30B105FF30B2050030B30500306E
:100ED800B9000030BA000030BB000730B400340855
:100EE800BC002E1C852F3108B907320803110318DE
:100EF800320A031DBA07330803110318330A031D06
:100F0800BB0701300310B00CAF0CAE0CFF3E031D45
:100F1800862F01300310B10DB20DB30DFF3E031D36
:100F28008E2F0130BC02031D752F0930B400340820
:100F3800BC002E1CAD2F3108B90732080311031865
:100F4800320A031DBA07330803110318330A031DB5
:100F5800BB0701300310B00CAF0CAE0CFF3E031DF5
:100F6800AE2F01300310BB0CBA0CB90CFF3E031DA9
:100F7800B62F0130BC02031D9D2F3908A0003A0886
:100F8800A1003B08A2003808B4003408A3003D08BB
:100F9800B5003508A4000A128A150B21831603131D
:100FA8002008AE002108AF002208B0000800831610
:100FB8000313AD01A91FE72FA809A909A80A031956
:100FC800A90AAD01AD0A2808A0002908A100A201BC
:100FD8008E30AB002B08A3002D08AC002C08A40011
:100FE8000A128A150B21831603132008A80021086A
:100FF800A9002208AA00080008308A000408840A08
:1010080082070034003480343F34723431343F3442
:10101800FE3475343E34583463343D3495341D34CD
:101028003C34C534AE343A347934213439349434C8
:10103800803437349334A734353456341534343443
:10104800003400340034003480343F34F034FF344A
:10105800BE34E234A9343E3483347634BE34AE34FC
:101068002B343E343C34C334BD34D23413343D3491
:101078007834D334BB3448346934723461346E34D0
:101088002034503465347234653472346134003439
:1010980044346534763465346C346F347034653474
:1010A8006434203442347934003444346934733439
:1010B800743461346E346334653420343D34203400
:0810C800003463346D34003480
:1010D600D73423343C34193400348E30831603134A
:1010E600AC002C08AD00FF302B0503198828013011
:1010F6000310AB0CAA0CA90CA80CFF3E031D7B2801
:101106000130AC002C08AD0776282808A000290875
:10111600A1002A08A2002D08AC002C08A300A401F7
:101126000A128A150B21831603132008A80021082A
:10113600A9002208AA00080073080319A728720844
:1011460071047004031DBA280030F0000030F1006D
:101156000030F20008000130F5007508F307013091
:101166000310F20CF10CF00CFF3E031DB328FE3009
:1011760072050319D528AE280130F5007508F30766
:101186000130F007003003180130F1070030031872
:101196000130F20701300310F20CF10CF00CFF3EA7
:1011A600031DCE28FF3072050319E428BF2801303D
:1011B600F30201300310F00DF10DF20DFF3E031D99
:1011C600DD28F11BEA28023073020318DA287318A7
:1011D600F228FF30F0057F30F105FF30F2050310ED
:1011E600F30C7308F500F601F70110300310F50D46
:1011F600F60DF70DFF3E031DF9287508F004760875
:10120600F1047708F204740803190800F2170800BD
:101216008316031323080319152922082104200421
:10122600031D28290030A0000030A1000030A200D4
:1012360008000130A5002508A30701300310A20C01
:10124600A10CA00CFF3E031D2129FE302205031927
:1012560043291C290130A5002508A3070130A00752
:10126600003003180130A107003003180130A2072F
:1012760001300310A20CA10CA00CFF3E031D3C295B
:10128600FF302205031952292D290130A30201300E
:101296000310A00DA10DA20DFF3E031D4B29A11B9E
:1012A6005829023023020318482923186029FF30E1
:1012B600A0057F30A105FF30A2050310A30C23086B
:1012C600A500A601A70110300310A50DA60DA70DB8
:1012D600FF3E031D67292508A0042608A104270848
:1012E600A204240803190800A21708000330831675
:1012F6000313D1005108A0004F080A168A114E2484
:101306000A128A15831603134E0784000A128A15D9
:1013160000200A128A15D2000A128A1500200A1223
:101326008A15D3000A128A1500200A128A15D400DB
:101336004F0850040319EB290330D1005108A000CF
:10134600FF30CF070318D00AFF30D0074F080A1620
:101356008A114E240A128A15831603134E07840037
:101366000A128A1500200A128A15BE000A128A1568
:1013760000200A128A15BF000A128A1500200A12D6
:101386008A15C0005208AE005308AF005408B000DA
:101396004B08B1004C08B2004D08B3000A128A117E
:1013A60008270A128A15831603132E08C1002F0870
:1013B600C2003008C3000A128A11FF250A128A15D4
:1013C600831603133E08D2003F08D30040089A292B
:1013D6005208CB005308CC005408CD0008008312F5
:1013E60003133008B4003108B5003208B600031004
:1013F600350D360DB7003708BD003D08031D0C2A14
:101406000030B3000030B2000030B1000030B00050
:1014160008003008B4003108B5003208B6001730AD
:101426000310B60CB50CB40CFF3E031D132A34088A
:10143600B7003708B800B117FF30B005FF30B10567
:101446000030B2053008B9003108BA003208BB00D6
:10145600BC018E30BD02BD1F4E2A3D08803A8F3E2C
:1014660003183E2A0030B3000030B2000030B1004D
:101476000030B000080001300310BC0CBB0CBA0CE5
:10148600B90CFF3E031D3F2A0130B4003408BD07E6
:101496000319692A3E2A18303D02031C662A0030C9
:1014A600B3000030B2000030B1000030B0000800D8
:1014B6000130B4000310B90DBA0DBB0DBC0DB40B51
:1014C6005D2A0130BD023D08031D5B2A3808031959
:1014D600772AB909BA09BB09BC09B90A0319BA0AB4
:1014E6000319BB0A0319BC0A3C08B3003B08B20047
:1014F6003A08B1003908B0000800831603133E0805
:10150600C2003F08C3004008C4000310430D440D49
:10151600C5004508CB004B08031D9A2A0030C100C0
:101526000030C0000030BF000030BE0008003E089A
:10153600C2003F08C3004008C40017300310C40CA3
:10154600C30CC20CFF3E031DA12A4208C500450874
:10155600C600BF17FF30BE05FF30BF050030C0050F
:101566003E08C7003F08C8004008C900CA018E30BF
:10157600CB02CB1FDC2A4B08803A8F3E0318CC2ABD
:101586000030C1000030C0000030BF000030BE0097
:10159600080001300310CA0CC90CC80CC70CFF3E6A
:1015A600031DCD2A0130C2004208CB070319F72AD2
:1015B600CC2A18304B02031CF42A0030C10000303C
:1015C600C0000030BF000030BE0008000130C2007D
:1015D6000310C70DC80DC90DCA0DC20BEB2A013089
:1015E600CB024B08031DE92A46080319052BC70938
:1015F600C809C909CA09C70A0319C80A0319C90AC1
:101606000319CA0A4A08C1004908C0004808BF00B1
:101616004708BE000800831603135408A0005508A7
:10162600A1005608A200DB30D7005708A3000A160F
:101636008A1175250A128A1583160313DC1F482B97
:101646005408BE005508BF005608C0000030C1004F
:101656000030C2000030C3000A168A1140270A1261
:101666008A1503183F2B003083160313D4008030ED
:10167600D500BF30D6000800003083160313D4000F
:101686000030D5000030D600080000305C0215306E
:1016960003195B02031808005408BE005508BF0072
:1016A6005608C0000A128A1580220A128A15831665
:1016B60003134108CF004008CE003F08CD003E0886
:1016C600CC000A168A1133250A128A1583160313CB
:1016D6004C08D8004D08D9004E08DA005408BE0060
:1016E6005508BF005608C0005808C1005908C20076
:1016F6005A08C3000A168A1140270A128A150318C7
:101706009E2B003083160313BE008030BF00BF300F
:10171600C0005808C1005908C2005A08C3000A127E
:101726008A11FF25831603133E08D4003F08D5000F
:101736004008D6000800831603135808D400590839
:10174600D5005A08D6000800831603135708560416
:101756005504031DB52B0030D5000030D6000030EF
:10176600D700080057087F39DA00DB010310DA0DCD
:10177600DB0D5A08D8070318D90A5B08D907560D96
:10178600560D0139DA00DB015A08D8070318D90AC1
:101796005B08D907D91FDE2B223083120313C90039
:1017A6000030CA00003083160313D5000030D6007F
:1017B6000030D70008005908803AFF0081307F02C8
:1017C600031DE72B00305802031C272C22308312FE
:1017D6000313C9000030CA00831603135508BE0060
:1017E6005608BF005708C0000030C1000030C200D4
:1017F6000030C3000A168A1140270A128A150318F8
:101806001E2CFF3083160313DC007F30DD007F3093
:10181600DE005C08A0005D08A1005E08A2000A16B2
:101826008A113924831603132008D5002108D6000F
:101836002208D7000800FF3083160313D5007F3037
:10184600D6007F30D7000800831603135908DB0043
:101856005808DA005B0DDB0CDA0C57085A0680399B
:101866005A06D70058080139DA00DA0CDA0C56089D
:101876005A067F395A06D6000800831603136D08E8
:10188600EF00EF0DEF0D831203131F0883160313EA
:101896006F06C3396F06831203139F009F148312CA
:1018A60003139F1C612C1E0883160317A8008316BA
:1018B60003131E0883160317A700522CC030831685
:1018C6000313BE007F30BF004430C0000030AE00BE
:1018D600A030AF004030B0008316031728088316E7
:1018E6000313A90083160317270883160313A800FA
:1018F6000A128A11DB270A128A158316031328088F
:10190600B1002908B2002A08B3000A128A11082772
:101916000A128A15831603132E08C1002F08C20067
:101926003008C3000A128A15AA250A128A158316D8
:1019360003133E0883160317A100831603133F08FB
:1019460083160317A2008316031340088316031792
:10195600A300AC3093008D309400BF309500210871
:10196600900022089100230892000A128A1101238E
:101976000A128A15831603171008A4001108A50079
:101986001208A600240883160313B1008316031752
:10199600250883160313B200831603172608831639
:1019A6000313B3004B30AE007630AF004230B000C8
:1019B6000A128A1108270A128A15831603132E089B
:1019C600BE002F08BF003008C0000A128A15802208
:1019D600831603133F08EE003E08ED00080083124D
:1019E60003132308A6002408A7002508A80003104F
:1019F600270D280DA9002908AE002E08031D0A2D63
:101A06000030A0000030A1000030A200080020082D
:101A1600A6002108A7002208A8000310270D280DFC
:101A2600A9002908AF002F08031D202D0030A000B3
:101A36000030A1000030A20008000030AB000030EA
:101A4600AC000030AD0089302F07A6002608AE0294
:101A56002308A6002408A7002508A80010300310B4
:101A6600A80CA70CA60CFF3E031D322D2608A900C4
:101A76002908AF002008A6002108A7002208A80010
:101A860010300310A80CA70CA60CFF3E031D442D16
:101A96002608A9002908AF068030A6002608AF054B
:101AA600A417FF30A305FF30A4050030A505A11734
:101AB600FF30A005FF30A1050030A2051830A600B2
:101AC6002608AA0001300310AB0DAC0DAD0DFF3E8C
:101AD600031D662D22082502031D772D21082402E9
:101AE600031D772D20082302031C842D2008A30242
:101AF6002108031C210FA4022208031C220AA502A6
:101B06002B1401300310A30DA40DA50DFF3E031DDC
:101B1600852D0130AA02031D652D2B08F0002C0827
:101B2600F1002D08F2002E08A6002608F3002F0863
:101B3600A7002708F4000A128A159F20700883124E
:101B46000313A0007108A1007208A2000800831602
:101B560003134108C4004208C5004308C600031029
:101B6600450D460DC7004708CC004C08031DC22D85
:101B76000030BE000030BF000030C00008003E0844
:101B8600C4003F08C5004008C6000310450D460DB9
:101B9600C7004708CD004D08031DD82D0030BE00F4
:101BA6000030BF000030C00008000030C90000301F
:101BB600CA000030CB0089304D07C4004408CC026F
:101BC6004108C4004208C5004308C600103003108F
:101BD600C60CC50CC40CFF3E031DEA2D4408C70005
:101BE6004708CD003E08C4003F08C5004008C600AF
:101BF60010300310C60CC50CC40CFF3E031DFC2D93
:101C06004408C7004708CD068030C4004408CD0507
:101C1600C217FF30C105FF30C2050030C305BF172C
:101C2600FF30BE05FF30BF050030C0051830C400C8
:101C36004408C80001300310C90DCA0DCB0DFF3E84
:101C4600031D1E2E40084302031D2F2E3F0842028D
:101C5600031D2F2E3E084102031C3C2E3E08C102E6
:101C66003F08031C3F0FC2024008031C400AC30280
:101C7600491401300310C10DC20DC30DFF3E031DF3
:101C86003D2E0130C802031D1D2E4908A0004A083A
:101C9600A1004B08A2004C08C4004408A3004D084C
:101CA600C5004508A4000A128A150B2183160313E2
:101CB6002008BE002108BF002208C00008008316C5
:101CC60003135508BE005608BF005708C000003071
:101CD600C1000030C2000030C3000A168A11402736
:101CE6000A128A150318862E213083120313C9009F
:101CF6000030CA00003083160313D5000030D6002A
:101D06000030D700080083160313570856045504FD
:101D1600031D9C2E223083120313C9000030CA0013
:101D2600003083160313D5000030D6000030D700EC
:101D360008000030BE008030BF00BF30C000003059
:101D4600AE000030AF004030B000D930D80058089F
:101D5600A3005508A0005608A1005708A2000A16BD
:101D66008A1175250A128A15831603132008B100F5
:101D76002108B2002208B3000A128A1108270A12A3
:101D86008A15831603132E08C1002F08C2003008D7
:101D9600C3000A128A11FF250A128A158316031335
:101DA6003E08D5003F08D6004008D700FF30D907C7
:101DB6000318DA0AFF30DA075508CB005608CC00BC
:101DC6005708CD001F30D8005808CE000830CF0085
:101DD6000030D0000A128A1579210A128A15831654
:101DE60003134B08D5004C08D6004D08D7005508FC
:101DF600BE005608BF005708C0007230AE00313032
:101E0600AF003F30B0005A08A9005908A8000A12CE
:101E16008A11DB270A128A15831603132808B100D4
:101E26002908B2002A08B3000A128A1108270A12E2
:101E36008A15831603132E08C1002F08C200300826
:101E4600C3000A128A11FF25831603133E08D50024
:101E56003F08D6004008D700080083160317B001D4
:101E6600B101B401B501B201B3013308803AAB0048
:101E76003F08803A2B02031D422F3E083202031808
:101E8600D42F831603172A0883160313EE0083162E
:101E96000317290883160313ED000A128A15402436
:101EA6000A128A15831603136E0883160317B700E2
:101EB600831603136D0883160317B60037088316B7
:101EC6000313A90083160317360883160313A80005
:101ED6000A128A11DB270A128A15831603132808A9
:101EE600BE002908BF002A08C000831603172D0864
:101EF60083160313A900831603172C0883160313EE
:101F0600A8000A128A11DB270A128A158316031300
:101F16002808B1002908B2002A08B300831603175F
:101F26003B0883160313AE00831603173C0883167B
:101F36000313AF00831603173D0883160313B0007F
:101F46000A128A1108270A128A15831603132E0805
:101F5600C1002F08C2003008C3000A168A114027A4
:101F66000A128A15031CCB2F831603173708AD00F8
:101F76003608AC0036083407B40037080318370AA9
:101F86003507B5000130B0070318B10A0030B107B4
:101F9600013083160317B2070318B30A0030B307DC
:101FA600382F83160317310883160313A1008316EF
:101FB6000317300883160313A0008316031735088A
:101FC60083160313A300831603173408831603131B
:101FD600A2000A168A11E526831603132108831622
:101FE6000317AF0083160313200883160317AE00EA
:0A1FF6002F08AA002E08A900080019
:102872008316031322082104200403190800803060
:10288200A206080000300A168A117D240A168A114F
:1028920001300A168A117D24080083160313A3004F
:1028A200A201231C582C2008A1002108A207031012
:1028B200A00D0310A30C2308031D522C22080800AC
:1028C2008316031788018901FF30831603138500DD
:1028D2000515831603170815831603139F171F1276
:1028E200831203131F083F3940389F001F08C33962
:1028F20008389F001F14080083160313A3008312D5
:10290200031308118316031323080A168A110525D7
:102912000A168A118312031388150B3083160313C8
:10292200A2006230A100A10B942CA20B942C0000F7
:102932008312031388110800FD01F91FA72CF8095F
:10294200F909F80A0319F90AFD01FD0A7808F000ED
:102952007908F100F2018E30FB007B08F3007D085C
:10296200FC007C08F4000A128A159F207008F80007
:102972007108F9007208FA000800831603134D0863
:102982004C044B040319C72C8030CD064E08BE0000
:102992004F08BF005008C0004B08C1004C08C200DD
:1029A2004D08C3000A128A11FF25831603133E083D
:1029B200CB003F08CC004008CD000800831603136B
:1029C200A700A501A6012508270784000A128A1577
:1029D20000200A168A11003A031908002508270761
:1029E20084000A128A1500200A168A110A168A1110
:1029F200B7250A168A11013083160313A507031897
:102A0200A60A0030A607E42C83160313A000201C9C
:102A12000E2D831203130816112D831203130812AD
:102A220083160313A01C192D8312031388161C2D61
:102A320083120313881283160313201D242D83127D
:102A420003130817272D8312031308138316031386
:102A5200A01D2F2D8312031388170800831203135E
:102A62008813080083160313D3018E30D000500858
:102A7200D200CF1F492DCC09CD09CE09CF09CC0AEE
:102A82000319CD0A0319CE0A0319CF0AD301D30AB7
:102A9200FF304F0503195B2D01300310CF0CCE0C14
:102AA200CD0CCC0CFF3E031D4E2D0130D000500842
:102AB200D207492D4C08A0004D08A1004E08A200E3
:102AC2005208D0005008A3005308D1005108A400B6
:102AD2000A128A150B21831603132008CC00210841
:102AE200CD002208CE000800831603132208210419
:102AF2002004031D892D2308840083138001840A86
:102B020080010030A0000030A1000030A2000800C7
:102B120022087F39A400A5010310A40DA50D2308E6
:102B22008400240883138000840A25088000210D74
:102B3200210D0139A400A501230884002408800482
:102B4200840A250880042308840082308007840FC9
:102B520000080318000AFF00FF307F07800084038B
:102B6200220880393F38A200A113080083160313FC
:102B7200A40024080F39A1002108A2002408F0397A
:102B8200A1002108A300831203130815831603135F
:102B92002308A10004300310A10CFF3E031DCC2D1D
:102BA20021080A168A1105250A168A1183120313AF
:102BB20088151A3083160313A100A10BDE2D000025
:102BC2008312031388118316031322080A168A112B
:102BD20005250A168A118312031388151A308316E3
:102BE2000313A100A10BF32D00008312031388111C
:102BF20008000B1C3B2E8B13061E002E1014061A07
:102C0200392E10100F08BE00BF013E08BF00BE01E2
:102C12003E080E04F8003F08F9000A168A119D24A6
:102C22000A168A11780883120313A3007908A400F4
:102C32007A08A5004830A0006B30A1004230A20003
:102C42000A128A15F2240A168A1183120313200823
:102C5200B0002108B1002208B2000A128A15F2213E
:102C62000A168A11831203133108C8003008C700FC
:102C72000B108B174308FF0042088A0041088400AA
:102C8200400E8300FE0E7E0E090083160313A6017A
:102C9200A31F522EA209A309A20A0319A30AA6017D
:102CA200A60AA11F592EA009A109A00A0319A10A67
:102CB200200821040319862EA501A50AA11B6D2E49
:102CC20001300310A00DA10DFF3E031D622E013045
:102CD200A4002408A5075F2E21082302031D732EDA
:102CE20020082202031C7B2E2008A2022108031CBA
:102CF200A303A30201300310A10CA00CFF3E031D8D
:102D02007C2E0130A502031D6D2E260803198E2E7E
:102D1200A209A309A20A0319A30A2308A1002208EF
:102D2200A000080083160313A7002703031DBC2E6F
:102D320024087F3EA5002508AA002A08A500043021
:102D42000310A50CFF3E031DA12E2508A600260890
:102D5200A8002A080F39A5002508A90028080A1684
:102D62008A117D240A168A118316031329080A166A
:102D72008A117D2408000230831603132706031DDF
:102D820008002408BF3EA5002508AA002A08A500BD
:102D920004300310A50CFF3E031DCA2E2508A60011
:102DA2002608A8002A080F39A5002508A900280826
:102DB2000A168A117D240A168A118316031329081A
:102DC2000A168A117D24080083160313A601A11F87
:102DD200F12EA009A109A00A0319A10AA601A60AB7
:102DE200A31FFC2EA209A309A20A0319A30A0130F8
:102DF200A4002408A606A701A8012008210403199B
:102E0200332FA501A50AA11B122F01300310A00D1B
:102E1200A10DFF3E031D072F0130A4002408A507C2
:102E2200042F01300310A70DA80DFF3E031D132F21
:102E320021082302031D1F2F20082202031C282F12
:102E42002008A2022108031CA303A30227140130B5
:102E52000310A10CA00CFF3E031D292F0130A50277
:102E6200031D122F260803193B2FA709A809A70A39
:102E72000319A80A2808A1002708A0000800831641
:102E82000313C01F692F0030C4000030C50080301A
:102E9200C6003E09C7003F09C8004009C900C70A69
:102EA2000319C80A0319C90A4708C40748080318BE
:102EB200480F5C2F5D2FC50749080318490F622F81
:102EC200632FC6074408BE004508BF004608C0007D
:102ED200C31F902F0030C4000030C5008030C600F0
:102EE2004109C7004209C8004309C900C70A0319BA
:102EF200C80A0319C90A4708C40748080318480F33
:102F0200832F842FC50749080318490F892F8A2F59
:102F1200C6074408C1004508C2004608C300803005
:102F2200C0068030C30643084002031D0800420861
:102F32003F02031D080041083E02080000300A1645
:102F42008A1105250A168A11343083160313A50047
:102F5200F130A400A40BAB2FA50BAB2FB02F033085
:102F62000A168A117D240A168A110D30831603135C
:102F7200A500FB30A400A40BBC2FA50BBC2FC12FB6
:102F820003300A168A117D240A168A111D3083160F
:102F92000313A5009130A400A40BCD2FA50BCD2FB8
:102FA20003300A168A117D240A168A1102300A1683
:102FB2008A117D240A168A1102300A168A117D248A
:102FC2000A168A1108300A168A117D240A168A11F5
:102FD20000300A168A117D240A168A110C300A164C
:102FE2008A117D240A168A1100300A168A117D245C
:0E2FF2000A168A1106300A168A117D2408007C
:04400E00F2E0FFFFDE
:00000001FF
