:060000000A128A11122809
:10000800FE00030EF8000408F9000A08FA0083123B
:1000180003137F08FB000A128A11142A0A128A1194
:100028001528D301D401D501D60183010A128A11FA
:100038001D288316031387018312031387013030A9
:1000480090008F018E010B3097000030D6000030F1
:10005800D5000030D4000030D3000C1183160313F0
:100068000C15C0308B00313083120313900001301F
:1000780084000A128A1112240A128A1183120313A5
:10008800A8000A128A1112240A128A11A9000A1257
:100098008A1112240A128A11AA000A128A11122439
:1000A8000A128A11AB000A128A11E3230A128A1172
:1000B800831203132808B1002908B2002A08B300E4
:1000C8000030AE000030AF003F30B0000A128A1195
:1000D80041210A128A11831203132E08BE002F0829
:1000E800BF003008C0000A128A11E7220A128A11DA
:1000F800831203134108D2004008D1003F08D00002
:100108003E08CF003330CE00BC30CD001030CC00DC
:10011800CC0B8C28CD0B8C28CE0B8C28013084007E
:100128000A128A1112240A128A1183120313A800D0
:100138000A128A1112240A128A11A9000A128A11B3
:1001480012240A128A11AA000A128A1112240A1207
:100158008A11AB000A128A11E3230A128A11831248
:1001680003132808B1002908B2002A08B300333065
:10017800AE003330AF003F30B0000A128A1141217F
:100188000A128A11831203132E08BE002F08BF001B
:100198003008C0000A128A11E7220A128A11831253
:1001A80003134108D2004008D1003F08D0003E08A0
:1001B800CF003330CE00BC30CD001030CC00CC0B9B
:1001C800E328CD0BE328CE0BE328013084000A1284
:1001D8008A1112240A128A1183120313A8000A1220
:1001E8008A1112240A128A11A9000A128A111224E9
:1001F8000A128A11AA000A128A1112240A128A11F2
:10020800AB000A128A11E3230A128A11831203131C
:100218002808B1002908B2002A08B3009A30AE00B5
:100228009930AF003E30B0000A128A1141210A12FB
:100238008A11831203132E08BE002F08BF0030084E
:10024800C0000A128A11E7220A128A1183120313C4
:100258004108D2004008D1003F08D0003E08CF0036
:100268003330CE00BC30CD001030CC00CC0B3A2956
:10027800CD0B3A29CE0B3A293B28831203132E08BB
:10028800B4002F08B5003008B6000310350D360D40
:10029800B7003708B8003808031D59290030AE00E8
:1002A8000030AF000030B00008003108B400320858
:1002B800B5003308B6000310350D360DB700370802
:1002C800BD003D08031D6F290030AE000030AF00AF
:1002D8000030B00008003D087B3EB4003408B80781
:1002E8002E08B4002F08B5003008B60010300310EF
:1002F800B60CB50CB40CFF3E031D7B293408B700BF
:100308003708BD003108B4003208B5003308B6001C
:1003180010300310B60CB50CB40CFF3E031D8D292C
:100328003408B7003708BD068030B4003408BD056E
:10033800AF17B217FF30B105FF30B2050030B30573
:100348000030B9000030BA000030BB000730B400FC
:100358003408BC002E1CBE293108B9073208031125
:100368000318320A031DBA07330803110318330AA6
:10037800031DBB0701300310B00CAF0CAE0CFF3EE1
:10038800031DBF2901300310B10DB20DB30DFF3E9F
:10039800031DC7290130BC02031DAE290930B40072
:1003A8003408BC002E1CE6293108B90732080311AD
:1003B8000318320A031DBA07330803110318330A56
:1003C800031DBB0701300310B00CAF0CAE0CFF3E91
:1003D800031DE72901300310BB0CBA0CB90CFF3E12
:1003E800031DEF290130BC02031DD6293908A000DE
:1003F8003A08A1003B08A2003808B4003408A3005A
:100408003D08B5003508A4000A128A117523831225
:1004180003132008AE002108AF002208B00008002E
:100428000C1DDC2A5208510450044F040319962A63
:10043800013084000A128A1112240A128A11F0006B
:100448000A128A1112240A128A11F1000A128A1158
:1004580012240A128A11F2000A128A1112240A12AC
:100468008A11F30073085202031D442A72085102CC
:10047800031D442A71085002031D442A70084F02C4
:100488000318962A071D8C2A0711013084000A12C6
:100498008A1112240A128A11F0000A128A111224EF
:1004A8000A128A11F1000A128A1112240A128A11F8
:1004B800F2000A128A1112240A128A11F3004F0953
:1004C800F4005009F5005109F6005209F700F40A42
:1004D8000319F50A0319F60A0319F70A7408F0074D
:1004E80075080318750F792A7A2AF1077608031810
:1004F800760F7F2A802AF20777080318770AF3070E
:100508007308D6007208D5007108D4007008942AC0
:1005180007155208D6005108D5005008D4004F08D6
:10052800D300C62A013084000A128A1112240A1242
:100538008A11F0000A128A1112240A128A11F10093
:100548000A128A1112240A128A11F2000A128A1156
:1005580012240A128A11F30073085206031DBE2AD8
:1005680072085106031DBE2A71085006031DBE2AD3
:1005780070084F06031907155208510450044F0418
:10058800031907115308F0005408F1005508F20048
:100598005608F30008300310F30CF20CF10CF00CC1
:1005A800FF3E031DCF2A70089600530895000C11D2
:1005B8007B08FF007A088A0079088400780E830097
:1005C800FE0E7E0E0900831203133E08C2003F0888
:1005D800C3004008C4000310430D440DC50045087E
:1005E800CB004B08031D012B0030C1000030C000B8
:1005F8000030BF000030BE0008003E08C2003F08BF
:10060800C3004008C40017300310C40CC30CC20C4C
:10061800FF3E031D082B4208C5004508C600BF174A
:10062800FF30BE05FF30BF050030C0053E08C700DB
:100638003F08C8004008C900CA018E30CB02CB1F52
:10064800432B4B08803A8F3E0318332B0030C100F0
:100658000030C0000030BF000030BE00080001308C
:100668000310CA0CC90CC80CC70CFF3E031D342B61
:100678000130C2004208CB0703195E2B332B183018
:100688004B02031C5B2B0030C1000030C00000305F
:10069800BF000030BE0008000130C2000310C70DC3
:1006A800C80DC90DCA0DC20B522B0130CB024B0825
:1006B800031D502B460803196C2BC709C809C90923
:1006C800CA09C70A0319C80A0319C90A0319CA0AB1
:1006D8004A08C1004908C0004808BF004708BE00D2
:1006E800080083120313230803197F2B220821040F
:1006F8002004031D922B0030A0000030A100003020
:10070800A20008000130A5002508A3070130031046
:10071800A20CA10CA00CFF3E031D8B2BFE30220562
:100728000319AD2B862B0130A5002508A30701303E
:10073800A007003003180130A1070030031801306A
:10074800A20701300310A20CA10CA00CFF3E031D50
:10075800A62BFF3022050319BC2B972B0130A302CF
:1007680001300310A00DA10DA20DFF3E031DB52BF6
:10077800A11BC22B023023020318B22B2318CA2B49
:10078800FF30A0057F30A105FF30A2050310A30CA0
:100798002308A500A601A70110300310A50DA60D7A
:1007A800A70DFF3E031DD12B2508A0042608A10490
:1007B8002708A204240803190800A21708008E308D
:1007C80083120313AC002C08AD00FF302B0503196E
:1007D800FB2B01300310AB0CAA0CA90CA80CFF3E94
:1007E800031DEE2B0130AC002C08AD07E92B2808BF
:1007F800A0002908A1002A08A2002D08AC002C0896
:10080800A300A4010A128A11752383120313200876
:10081800A8002108A9002208AA00080004308A00BC
:100828000408840A82070034F4347E340034003427
:04400E00F2E0FFFFDE
:00000001FF
