:060000000A128A11DA2F3A
:10000800D73423343C3419340034F40074080F39DD
:10001800F1007108F2007408F039F1007108F3007A
:100028008312031308157308F10004300310F10C50
:10003800FF3E031D1A2871080A128A15AE210A12FA
:100048008A118312031388151A30F100F10B2A283C
:10005800000083120313881172080A128A15AE2150
:100068000A128A118312031388151A30F100F10B52
:100078003B2800008312031388110800831203131E
:100088003308B6003408B7003508B8000310370D38
:10009800380DB9003908BE003E08031D5A28003043
:1000A800B0000030B1000030B20008003008B600DF
:1000B8003108B7003208B8000310370D380DB90001
:1000C8003908BF003F08031D70280030B000003019
:1000D800B1000030B20008000030BB000030BC00A6
:1000E8000030BD0089303F07B6003608BE0233082D
:1000F800B6003408B7003508B80010300310B80C43
:10010800B70CB60CFF3E031D82283608B900390823
:10011800BF003008B6003108B7003208B800103008
:100128000310B80CB70CB60CFF3E031D9428360814
:10013800B9003908BF068030B6003608BF05B417C5
:10014800FF30B305FF30B4050030B505B117FF30F7
:10015800B005FF30B1050030B2051830B6003608DA
:10016800BA0001300310BB0DBC0DBD0DFF3E031DD1
:10017800B62832083502031DC72831083402031D8A
:10018800C72830083302031CD4283008B3023108CA
:10019800031C310FB4023208031C320AB5023B14A7
:1001A80001300310B30DB40DB50DFF3E031DD52866
:1001B8000130BA02031DB5283B08F0003C08F100E5
:1001C8003D08F2003E08B6003608F3003F08B700C5
:1001D8003708F4000A128A15B7247008831203132B
:1001E800B0007108B1007208B2000800831603134A
:1001F8002008A200A20DA20D831203131F08831664
:1002080003132206C3392206831203139F009F1487
:1002180083129F1C16291E0883160313AA001E08A2
:10022800A9000C29C030B0007F30B1004430B200C2
:100238000030A000A030A1004030A20083160313B4
:100248002A08F9002908F8000A128A15FE210A125C
:100258008A11780883120313A3007908A4007A0886
:10026800A5000A128A118B220A128A11831203131B
:100278002008B3002108B4002208B5000A128A1128
:1002880042200A128A1183120313300883160313BB
:10029800A30083120313310883160313A4008312E7
:1002A8000313320883160313A500AC30831203131B
:1002B800E1008D30E200BF30E3008316031323080A
:1002C80083120313DE008316031324088312031317
:1002D800DF0083160313250883120313E0000A12B4
:1002E8008A115E230A128A11831203135E08831689
:1002F8000313A600831203135F0883160313A700D2
:1003080083120313600883160313A80026088312B8
:100318000313A30083160313270883120313A400EF
:1003280083160313280883120313A5004B30A0007B
:100338007630A1004230A2000A128A118B220A12DA
:100348008A11831203132008B0002108B100220883
:10035800B2000A128A159C258312031331088316EA
:100368000313A10083120313300883160313A0009C
:100378000800831203134708B0004808B100490871
:10038800B2000030B3000030B4000030B5000A12EB
:100398008A1558240A128A110318E1292130831674
:1003A8000313C4000030C500003083120313C700D4
:1003B8000030C8000030C900080083120313490840
:1003C80048044704031DF729223083160313C40089
:1003D8000030C500003083120313C7000030C80086
:1003E8000030C90008000030B0008030B100BF30D4
:1003F800B2000030A0000030A1004030A2004B3015
:10040800CA004A08F3004708F0004808F100490804
:10041800F2000A128A158D220A128A1170088312B4
:100428000313A3007108A4007208A5000A128A1118
:100438008B220A128A11831203132008B3002108A1
:10044800B4002208B5000A128A1156240A128A1129
:10045800831203133008C7003108C8003208C900E6
:10046800FF30CB070318CC0AFF30CC074708BD0084
:100478004808BE004908BF001F30CA004A08C0002B
:100488000830C1000030C2000A128A1523250A125A
:100498008A11831203133D08C7003E08C8003F08AD
:1004A800C9004708B0004808B1004908B2007230D6
:1004B800A0003130A1003F30A2004C08F9004B08E1
:1004C800F8000A128A15FE210A128A117808831286
:1004D8000313A3007908A4007A08A5000A128A1158
:1004E8008B220A128A11831203132008B3002108F1
:1004F800B4002208B5000A128A1156248312031385
:100508003008C7003108C8003208C9000800831243
:1005180003132008A6002108A7002208A80003103A
:10052800270D280DA9002908AA002A08031DA32AB7
:100538000030A0000030A1000030A200080023080D
:10054800A6002408A7002508A8000310270D280DD9
:10055800A9002908AF002F08031DB92A0030A00000
:100568000030A1000030A20008002F087B3EA60042
:100578002608AA072008A6002108A7002208A80024
:1005880010300310A80CA70CA60CFF3E031DC52AAB
:100598002608A9002908AF002308A6002408A700F8
:1005A8002508A80010300310A80CA70CA60CFF3EC5
:1005B800031DD72A2608A9002908AF068030A600FF
:1005C8002608AF05A117A417FF30A305FF30A4051F
:1005D8000030A5050030AB000030AC000030AD00A5
:1005E8000730A6002608AE00201C082B2308AB07FE
:1005F800240803110318240A031DAC072508031156
:100608000318250A031DAD0701300310A20CA10C25
:10061800A00CFF3E031D092B01300310A30DA40DF0
:10062800A50DFF3E031D112B0130AE02031DF82A54
:100638000930A6002608AE00201C302B2308AB0783
:10064800240803110318240A031DAC072508031105
:100658000318250A031DAD0701300310A20CA10CD5
:10066800A00CFF3E031D312B01300310AD0CAC0C68
:10067800AB0CFF3E031D392B0130AE02031D202BAE
:100688002B08F0002C08F1002D08F2002A08A6001B
:100698002608F3002F08A7002708F4000A128A1575
:1006A800B724700883120313A0007108A100720810
:1006B800A200080083120313EB0160085F045E04C4
:1006C800031D882B0030B0000030B1000030B200AC
:1006D8006108B3006208B4006308B5000A128A15FD
:1006E80058240A128A11031C7F2B21308316031306
:1006F800C4000030C500003083120313DE00003050
:10070800DF000030E0000800630862046104031D94
:10071800942B0030DE008030DF003F30E00008001E
:100728005E08B0005F08B1006008B2000030B30096
:100738000030B4000030B5000A128A1558240A1295
:100748008A110318002C831203136108B000620891
:10075800B1006308B2000A128A159C250A128A1190
:10076800831203133308EF003208EE003108ED005E
:100778003008EC006F08FB006E08FA006D08F900FD
:100788006C08F8000A128A1562220A128A1183126A
:10079800031363087A06031DD72B62087906031D25
:1007A800D72B610878060319E82B21308316031329
:1007B800C4000030C500003083120313DE0000308F
:1007C800DF000030E00008006C080139E40064082C
:1007D800EB005E08F0005F08F1006008F2000A1202
:1007E8008A158A210A128A11700883120313DE00FF
:1007F8007108DF007208E000831203135E08C70067
:100808005F08C8006008C9000A128A11BD210A12CF
:100818008A11831203134708E5004808E6004908CF
:10082800E7006108A0006208A1006308A20065084B
:10083800A3006608A4006708A5000A128A118B2283
:100848000A128A11831203132008E8002108E9001C
:100858002208EA006808D1006908D2006A08D300B3
:100868000A128A1193260A128A1183120313510855
:10087800DE005208DF005308E0006B080319080087
:100888005E08F0005F08F1006008F2000A128A159D
:100898008A21700883120313DE007108DF007208D2
:1008A800E0000800831203133008B6003108B700CF
:1008B8003208B8000310370D380DB9003908BC00EC
:1008C8003308B6003408B7003508B8000310370DF0
:1008D800380DB9003908BB003C0803197F2C3B08C8
:1008E8003C020318862C3C03FF3A3B07B60019303C
:1008F8003602031C862C3308B0003408B1003508D2
:10090800B20008003B08031908003C083B02031822
:10091800952C3B03FF3A3C07B60019303602031802
:1009280008000630B6003608BA00B21BBA17B51B65
:100938003A17B117FF30B005FF30B1050030B205E6
:10094800B417FF30B305FF30B4050030B5053B08D8
:100958003C020318D52C01300310B30DB40DB50DAE
:10096800FF3E031DB02C0130BB023B083C060319B7
:10097800D02C0130BA023A0807390319D02CAF2C11
:1009880001300310B20CB10CB00CFF3E031DC52C96
:100998000130B6003608BC073C083B060319FE2C9C
:1009A800C42C3C083B020318FE2C01300310B00D88
:1009B800B10DB20DFF3E031DDA2C0130BC023B081D
:1009C8003C060319FA2C0130BA023A080739031910
:1009D800FA2CD92C01300310B50CB40CB30CFF3E23
:1009E800031DEF2C0130B6003608BB073C083B0658
:1009F800031DEE2CBA1F102DFF30B006FF30B106D4
:100A0800FF30B2060130B007003003180130B107DB
:100A1800003003180130B2073A1F222DFF30B30609
:100A2800FF30B406FF30B5060130B30700300318B5
:100A38000130B407003003180130B507BA01300897
:100A4800B307310803110318310A031DB40732082C
:100A580003110318320A031DB507B51F452DFF30D2
:100A6800B306FF30B406FF30B5060130B3070030D7
:100A780003180130B407003003180130B507BA0174
:100A8800BA0A3308F0003408F1003508F2003C08CF
:100A9800B6003608F3003A08B7003708F4000A121F
:100AA8008A15B724700883120313B0007108B100C7
:100AB8007208B20008008316031388010A128A1507
:100AC800E2210A128A110A128A15FD230A128A11D2
:100AD800F401F40A01300A128A150F230A128A1146
:100AE80047300A128A1540220A128A11F401F40AC0
:100AF80002300A128A150F230A128A113A300A1292
:100B08008A1540220A128A111F3083160313BC006B
:100B18007130BB003B30BA00BA0B902DBB0B902D47
:100B2800BC0B902D00000A128A1592210A128A1114
:100B3800023083160313AB000030AC000A128A158A
:100B48005C270A128A11831603132C08C3002B088A
:100B5800C2000A128A1592210A128A11F401F40AB3
:100B680001300A128A150F230A128A1154300A1208
:100B78008A1540220A128A110F3083160313BA000D
:100B88003A08F40002300A128A150F230A128A1151
:100B98000A30F0000030F100831603134308F30015
:100BA8004208F2000A128A1559230A128A1170089B
:100BB800303E0A128A1109200A128A110A30F000FE
:100BC8000030F100831603134308F3004208F200D3
:100BD8000A128A15A4230A128A11710883160313AC
:100BE800C3007008C2000E30BA003A08F4000230A0
:100BF8000A128A150F230A128A110A30F0000030EF
:100C0800F100831603134308F3004208F2000A12A6
:100C18008A1559230A128A117008303E0A128A115D
:100C280009200A128A110A30F0000030F1008316F8
:100C380003134308F3004208F2000A128A15A4239A
:100C48000A128A11710883160313C3007008C200C0
:100C58000D30BA003A08F40002300A128A150F2340
:100C68000A128A110A30F0000030F10083160313CB
:100C78004308F3004208F2000A128A1559230A129F
:100C88008A117008303E0A128A1109200A128A1144
:100C98000A30F0000030F100831603134308F30014
:100CA8004208F2000A128A15A4230A128A1171084E
:100CB80083160313C3007008C2000C30BA003A0848
:100CC800F40002300A128A150F230A128A110A3018
:100CD800F0000030F100831603134308F3004208C4
:100CE800F2000A128A1559230A128A117008303E36
:100CF8000A128A1109200A128A119C2D05308316BE
:100D08000313BC000F30BB00F430BA00BA0B8A2EB4
:100D1800BB0B8A2EBC0B8A2E0A128A11002883125A
:100D28000313530852045104031DA12E0030D100AF
:100D38008030D2003F30D30008007230B00031302C
:100D4800B1004430B2005108B3005208B40053084F
:100D5800B5000A128A1558240A128A110318C22EDD
:100D6800223083160313C4000030C500FF308312FD
:100D7800D1007F30D2007F30D300080083120313E4
:100D88005108B0005208B1005308B2004930B3000E
:100D98003A30B400C430B5000A128A1558240A1231
:100DA8008A110318E62E223083160313C40000307C
:100DB800C500003083120313D1000030D200003088
:100DC800D3000800831203135108B0005208B10081
:100DD8005308B2000030B3000030B4000030B50052
:100DE8000A128A1558240A128A110318FD2E013096
:100DF800FE2E003083120313D4005408DD005D0872
:100E08000319192F5108F0005208F1005308F20095
:100E18000A128A158A210A128A117008831203138A
:100E2800D1007108D2007208D300AA30A000B830EF
:100E3800A1003F30A2005108A3005208A4005308A3
:100E4800A5000A128A118B220A128A11831203132F
:100E58002008D1002108D2002208D3005108C6007A
:100E68005208C7005308C8000A128A152A260A120F
:100E78008A11831203134608D5004708D60048088C
:100E8800D7005508B0005608B1005708B2000A123A
:100E98008A159C250A128A11831203133108DC0073
:100EA8003008DB005C08F9005B08F8000A128A15B4
:100EB800FE210A128A11780883120313BD007908EB
:100EC800BE007A08BF005108C0005208C10053088C
:100ED800C2000A128A151F220A128A1183120313EA
:100EE8003D08D1003E08D2003F08D3005108BD009C
:100EF8005208BE005308BF000130D4005408C00097
:100F08000930C1000030C2000A128A1523250A12CE
:100F18008A11831203133D08C7003E08C8003F0822
:100F2800C9005C08CB005B08CA000A128A15C326F0
:100F38000A128A11831203134708D1004808D20005
:100F48004908D3005D0803190800FF30D8007F3036
:100F5800D9007F30DA0053085A06031DB92F52080A
:100F68005906031DB92F51085806031DC22F00301A
:100F7800D1000030D2000030D30008005108B00082
:100F88005208B1005308B2000030B3008030B400FA
:100F98003F30B5000A128A11422083120313300829
:100FA800D1003108D2003208D30008008316031399
:100FB8000A128A1104200A128A11BD000A128A1123
:100FC80005200A128A11BE000A128A1106200A1286
:100FD8008A11BF000A128A1107200A128A11C0005A
:100FE8000A128A110820C100C201C301C401C50147
:100FF80083010A128A115F2D08308A000408840AC6
:1010080082070034003480343F34723431343F3442
:10101800FE3475343E34583463343D3495341D34CD
:101028003C34C534AE343A347934213439349434C8
:10103800803437349334A734353456341534343443
:10104800003400340034003480343F34F034FF344A
:10105800BE34E234A9343E3483347634BE34AE34FC
:101068002B343E343C34C334BD34D23413343D3491
:101078007834D334BB3448346934723461346E34D0
:101088002034503465347234653472346134003439
:1010980044346534763465346C346F347034653474
:1010A8006434203442347934003444346934733439
:1010B800743461346E346334653420343D34203400
:0210C8000034F2
:10131400720871047004031908008030F206080092
:1013240000300A128A15C8210A128A1501300A12DD
:101334008A15C8210800F300F201731CA52970085E
:10134400F1007108F2070310F00D0310F30C730899
:10135400031D9F2972080800F000701CB529831230
:1013640003130816B829831203130812F01CBC29AE
:101374008816BD298812701DC1290817C2290813AF
:10138400F01DC6298817080088130800F30083128B
:101394000313081173080A128A15AE210A128A155A
:1013A4008312031388150B30F2006230F100F10B45
:1013B400D929F20BD92900008312031388110800DC
:1013C4008316031788018901FF30831603138500F0
:1013D4000515831603170815831603139F171F1289
:1013E400831203131F083F3940389F001F08C33975
:1013F40008389F001F140800FD01F91F082AF80986
:10140400F909F80A0319F90AFD01FD0A7808F00040
:101414007908F100F2018E30FB007B08F3007D08AF
:10142400FC007C08F4000A128A15B7247008F8003E
:101434007108F9007208FA000800831203133F08C8
:101444003E043D040319282A8030BF064008B0003A
:101454004108B1004208B2003D08B3003E08B400A0
:101464003F08B5000A128A11562483120313300868
:10147400BD003108BE003208BF000800F700F501C6
:10148400F6017508770784000A128A1500200A12EB
:101494008A15003A031908007508770784000A12B0
:1014A4008A1500200A128A150A128A1109200A12C2
:1014B4008A150130F5070318F60A0030F607432AA7
:1014C4008E30FC007C08FD00FF307B050319782A70
:1014D40001300310FB0CFA0CF90CF80CFF3E031D51
:1014E4006B2A0130FC007C08FD07662A7808F000AE
:1014F4007908F1007A08F2007D08FC007C08F3000A
:10150400F4010A128A15B7247008F8007108F9006A
:101514007208FA000800720871047004031D9F2AFF
:101524007308840083138001840A80010030F00072
:101534000030F1000030F200080072087F39F40036
:10154400F5010310F40DF50D73088400740883137A
:101554008000840A75088000710D710D0139F40052
:10156400F5017308840074088004840A75088004F3
:101574007308840082308007840F00080318000A6F
:10158400FF00FF307F0780008403720880393F38F2
:10159400F200F113080083120313C5018E30C20058
:1015A4004208C400C11FE32ABE09BF09C009C1091A
:1015B400BE0A0319BF0A0319C00A0319C10AC501E7
:1015C400C50AFF3041050319F52A01300310C10C87
:1015D400C00CBF0CBE0CFF3E031DE82A0130C20044
:1015E4004208C407E32A3E08F0003F08F10040081F
:1015F400F2004408C2004208F3004508C30043084F
:10160400F4000A128A15B724700883120313BE006B
:101614007108BF007208C0000800F7007703031DBB
:10162400342B74087F3EF5007508FA007A08F5003B
:1016340004300310F50CFF3E031D1B2B7508F60048
:101644007608F8007A080F39F5007508F90078086B
:101654000A128A15C8210A128A1579080A128A15EB
:10166400C821080002307706031D08007408BF3E35
:10167400F5007508FA007A08F50004300310F50C3B
:10168400FF3E031D402B7508F6007608F8007A0823
:101694000F39F5007508F90078080A128A15C8216F
:1016A4000A128A1579080A128A15C8210800F60157
:1016B400F31F632BF209F309F20A0319F30AF60183
:1016C400F60AF11F6A2BF009F109F00A0319F10A6D
:1016D400700871040319972BF501F50AF11B7E2B91
:1016E40001300310F00DF10DFF3E031D732B01308B
:1016F400F4007408F507702B71087302031D842B22
:1017040070087202031C8C2B7008F2027108031C0F
:10171400F303F30201300310F10CF00CFF3E031D40
:101724008D2B0130F502031D7E2B760803199F2BA8
:10173400F209F309F20A0319F30A7308F1007208B3
:10174400F0000800F601F11FAE2BF009F109F00AD0
:101754000319F10AF601F60AF31FB92BF209F3098A
:10176400F20A0319F30A0130F4007408F606F701CB
:10177400F801700871040319F02BF501F50AF11B47
:10178400CF2B01300310F00DF10DFF3E031DC42BD0
:101794000130F4007408F507C12B01300310F70D74
:1017A400F80DFF3E031DD02B71087302031DDC2BC3
:1017B40070087202031CE52B7008F2027108031C06
:1017C400F303F302771401300310F10CF00CFF3E25
:1017D400031DE62B0130F502031DCF2B76080319F8
:1017E400F82BF709F809F70A0319F80A7808F10041
:1017F4007708F000080000300A128A15AE210A1298
:101804008A153430F500F130F400F40B072CF50B95
:10181400072C0C2C03300A128A15C8210A128A15C7
:101824000D30F500FB30F400F40B162CF50B162CE0
:101834001B2C03300A128A15C8210A128A151D307E
:10184400F5009130F400F40B252CF50B252C033016
:101854000A128A15C8210A128A1502300A128A1538
:10186400C8210A128A1502300A128A15C8210A12DE
:101874008A1508300A128A15C8210A128A150030FE
:101884000A128A15C8210A128A150C300A128A15FE
:10189400C8210A128A1500300A128A15C8210A12B0
:1018A4008A1506300A128A15C82108008312031308
:1018B400B21F812C0030B6000030B7008030B80071
:1018C4003009B9003109BA003209BB00B90A031959
:1018D400BA0A0319BB0A3908B6073A0803183A0FBB
:1018E400742C752CB7073B0803183B0F7A2C7B2C00
:1018F400B8073608B0003708B1003808B200B51F81
:10190400A82C0030B6000030B7008030B80033098E
:10191400B9003409BA003509BB00B90A0319BA0A77
:101924000319BB0A3908B6073A0803183A0F9B2C67
:101934009C2CB7073B0803183B0FA12CA22CB8071B
:101944003608B3003708B4003808B5008030B20652
:101954008030B50635083202031D08003408310210
:10196400031D080033083002080073080319BF2C54
:10197400720871047004031DD22C0030F000003092
:10198400F1000030F20008000130F5007508F3079B
:1019940001300310F20CF10CF00CFF3E031DCB2CB4
:1019A400FE3072050319ED2CC62C0130F5007508C4
:1019B400F3070130F007003003180130F10700305D
:1019C40003180130F20701300310F20CF10CF00C93
:1019D400FF3E031DE62CFF3072050319FC2CD72CA7
:1019E4000130F30201300310F00DF10DF20DFF3E52
:1019F400031DF52CF11B022D023073020318F22C87
:101A040073180A2DFF30F0057F30F105FF30F20521
:101A14000310F30C7308F500F601F70110300310FE
:101A2400F50DF60DF70DFF3E031D112D7508F0049D
:101A34007608F1047708F204740803190800F21711
:101A44000800033083120313C3004308F000410865
:101A54000A128A159D210A128A158312031340075C
:101A640084000A128A1500200A128A15C4000A1278
:101A74008A1500200A128A15C5000A128A15002048
:101A84000A128A15C600410842040319952D033031
:101A9400C3004308F000FF30C1070318C20AFF3037
:101AA400C20741080A128A159D210A128A15831257
:101AB4000313400784000A128A1500200A128A15AB
:101AC400B0000A128A1500200A128A15B1000A12FF
:101AD4008A1500200A128A15B2004408A00045089D
:101AE400A1004608A2003D08A3003E08A4003F0848
:101AF400A5000A128A118B220A128A158312031373
:101B04002008B3002108B4002208B5000A128A1183
:101B140056240A128A15831203133008C4003108AC
:101B2400C5003208442D4408BD004508BE004608DF
:101B3400BF000800831203133008B4003108B50055
:101B44003208B6000310350D360DB7003708BD0056
:101B54003D08031DB62D0030B3000030B200003044
:101B6400B1000030B00008003008B4003108B500FE
:101B74003208B60017300310B60CB50CB40CFF3E97
:101B8400031DBD2D3408B7003708B800B117FF3066
:101B9400B005FF30B1050030B2053008B900310896
:101BA400BA003208BB00BC018E30BD02BD1FF82D47
:101BB4003D08803A8F3E0318E82D0030B300003012
:101BC400B2000030B1000030B00008000130031052
:101BD400BC0CBB0CBA0CB90CFF3E031DE92D013043
:101BE400B4003408BD070319132EE82D18303D0244
:101BF400031C102E0030B3000030B2000030B100DE
:101C04000030B00008000130B4000310B90DBA0D63
:101C1400BB0DBC0DB40B072E0130BD023D08031DE6
:101C2400052E38080319212EB909BA09BB09BC09C4
:101C3400B90A0319BA0A0319BB0A0319BC0A3C08F6
:101C4400B3003B08B2003A08B1003908B0000800FC
:101C5400831203134608F0004708F1004808F20015
:101C64004D30C9004908F3000A128A158D220A1260
:101C74008A1583120313CE1F642E4608B00047084A
:101C8400B1004808B2000030B3000030B4000030A6
:101C9400B5000A128A1558240A128A1503185B2EF5
:101CA400003083120313C6008030C700BF30C80061
:101CB4000800003083120313C6000030C700003050
:101CC400C800080000304E02153003194D020318F5
:101CD40008004608B0004708B1004808B2000A12DC
:101CE4008A159C250A128A15831203133308C1002E
:101CF4003208C0003108BF003008BE000A128A153D
:101D0400CD220A128A15831203133E08CA003F0823
:101D1400CB004008CC004608B0004708B100480892
:101D2400B2004A08B3004B08B4004C08B5000A12CC
:101D34008A1558240A128A150318BA2E0030831201
:101D44000313B0008030B100BF30B2004A08B300C2
:101D54004B08B4004C08B5000A128A1156248312A9
:101D640003133008C6003108C7003208C800080051
:101D7400831203134A08C6004B08C7004C08C80066
:101D8400080083120313490848044704031DD12E95
:101D94000030C7000030C8000030C90008004908FE
:101DA4007F39CC00CD010310CC0DCD0D4C08CA07F2
:101DB4000318CB0A4D08CB07480D480D0139CC0058
:101DC400CD014C08CA070318CB0A4D08CB07CB1F1B
:101DD400FA2E223083160313C4000030C5000030ED
:101DE40083120313C7000030C8000030C900080084
:101DF4004B08803AFF0081307F02031D032F00301F
:101E04004A02031C432F223083160313C4000030FC
:101E1400C500831203134708B0004808B1004908FD
:101E2400B2000030B3000030B4000030B5000A1234
:101E34008A1558240A128A1503183A2FFF30831280
:101E44000313CE007F30CF007F30D0004E08F00067
:101E54004F08F1005008F2000A128A158A2170080E
:101E640083120313C7007108C8007208C900080070
:101E7400FF3083120313C7007F30C8007F30C900CE
:101E84000800831203134B08CD004A08CC004D0D03
:101E9400CD0CCC0C49084C0680394C06C9004A08C4
:101EA4000139CC00CC0CCC0C48084C067F394C06CC
:101EB400C800080083160313B201B301B601B701C9
:101EC400B401B5013508803AAD004108803A2D02CD
:101ED400031D6E2F400834020318E82F83160313E2
:101EE4002C08A1002B08A0000A128A11FA200A1259
:101EF4008A15831603132108B9002008B80039088D
:101F0400F9003808F8000A128A15FE210A128A1507
:101F1400780883120313B0007908B1007A08B2007C
:101F2400831603132F08F9002E08F8000A128A15E5
:101F3400FE210A128A15780883120313A300790874
:101F4400A4007A08A500831603133D088312031323
:101F5400A000831603133E0883120313A100831603
:101F640003133F0883120313A2000A128A118B225F
:101F74000A128A15831203132008B3002108B4003F
:101F84002208B5000A128A1558240A128A15031C5D
:101F9400DF2F831603133908AF003808AE00380862
:101FA4003607B60039080318390A3707B700013075
:101FB400B2070318B30A0030B307013083160313C2
:101FC400B4070318B50A0030B507642F831603134A
:101FD4003308F1003208F0003708F3003608F20045
:101FE4000A128A15A423710883160313B10070081A
:0C1FF400B0003108AC003008AB00080061
:04400E00F2E0FFFFDE
:00000001FF
